{
  "_format": "hh-sol-artifact-1",
  "contractName": "Voting",
  "sourceName": "contracts/Voting.sol",
  "abi": [
    {
      "inputs": [],
      "stateMutability": "nonpayable",
      "type": "constructor"
    },
    {
      "anonymous": false,
      "inputs": [
        {
          "indexed": true,
          "internalType": "address",
          "name": "voter",
          "type": "address"
        },
        {
          "indexed": false,
          "internalType": "uint256",
          "name": "candidateId",
          "type": "uint256"
        }
      ],
      "name": "Voted",
      "type": "event"
    },
    {
      "inputs": [
        {
          "internalType": "string",
          "name": "_name",
          "type": "string"
        }
      ],
      "name": "addCandidate",
      "outputs": [],
      "stateMutability": "nonpayable",
      "type": "function"
    },
    {
      "inputs": [
        {
          "internalType": "uint256",
          "name": "",
          "type": "uint256"
        }
      ],
      "name": "candidates",
      "outputs": [
        {
          "internalType": "string",
          "name": "name",
          "type": "string"
        },
        {
          "internalType": "uint256",
          "name": "voteCount",
          "type": "uint256"
        }
      ],
      "stateMutability": "view",
      "type": "function"
    },
    {
      "inputs": [],
      "name": "candidatesCount",
      "outputs": [
        {
          "internalType": "uint256",
          "name": "",
          "type": "uint256"
        }
      ],
      "stateMutability": "view",
      "type": "function"
    },
    {
      "inputs": [
        {
          "internalType": "uint256",
          "name": "_candidateId",
          "type": "uint256"
        }
      ],
      "name": "getCandidate",
      "outputs": [
        {
          "internalType": "string",
          "name": "",
          "type": "string"
        },
        {
          "internalType": "uint256",
          "name": "",
          "type": "uint256"
        }
      ],
      "stateMutability": "view",
      "type": "function"
    },
    {
      "inputs": [],
      "name": "getCandidatesCount",
      "outputs": [
        {
          "internalType": "uint256",
          "name": "",
          "type": "uint256"
        }
      ],
      "stateMutability": "view",
      "type": "function"
    },
    {
      "inputs": [
        {
          "internalType": "address",
          "name": "",
          "type": "address"
        }
      ],
      "name": "hasVoted",
      "outputs": [
        {
          "internalType": "bool",
          "name": "",
          "type": "bool"
        }
      ],
      "stateMutability": "view",
      "type": "function"
    },
    {
      "inputs": [
        {
          "internalType": "uint256",
          "name": "_candidateId",
          "type": "uint256"
        }
      ],
      "name": "vote",
      "outputs": [],
      "stateMutability": "nonpayable",
      "type": "function"
    }
  ],
  "bytecode": "0x608060405234801561001057600080fd5b506100556040518060400160405280601081526020017f526f6e616c642044756d70747275636b000000000000000000000000000000008152506100e260201b60201c565b6100996040518060400160405280601181526020017f4a6f686e20536c656570792042696475750000000000000000000000000000008152506100e260201b60201c565b6100dd6040518060400160405280600f81526020017f4b696c6c617279204b6c696e746f6e00000000000000000000000000000000008152506100e260201b60201c565b6104e3565b6040518060400160405280828152602001600081525060008060025481526020019081526020016000206000820151816000019081610121919061039a565b5060208201518160010155905050600260008154809291906101429061049b565b919050555050565b600081519050919050565b7f4e487b7100000000000000000000000000000000000000000000000000000000600052604160045260246000fd5b7f4e487b7100000000000000000000000000000000000000000000000000000000600052602260045260246000fd5b600060028204905060018216806101cb57607f821691505b6020821081036101de576101dd610184565b5b50919050565b60008190508160005260206000209050919050565b60006020601f8301049050919050565b600082821b905092915050565b6000600883026102467fffffffffffffffffffffffffffffffffffffffffffffffffffffffffffffffff82610209565b6102508683610209565b95508019841693508086168417925050509392505050565b6000819050919050565b6000819050919050565b600061029761029261028d84610268565b610272565b610268565b9050919050565b6000819050919050565b6102b18361027c565b6102c56102bd8261029e565b848454610216565b825550505050565b600090565b6102da6102cd565b6102e58184846102a8565b505050565b5b81811015610309576102fe6000826102d2565b6001810190506102eb565b5050565b601f82111561034e5761031f816101e4565b610328846101f9565b81016020851015610337578190505b61034b610343856101f9565b8301826102ea565b50505b505050565b600082821c905092915050565b600061037160001984600802610353565b1980831691505092915050565b600061038a8383610360565b9150826002028217905092915050565b6103a38261014a565b67ffffffffffffffff8111156103bc576103bb610155565b5b6103c682546101b3565b6103d182828561030d565b600060209050601f83116001811461040457600084156103f2578287015190505b6103fc858261037e565b865550610464565b601f198416610412866101e4565b60005b8281101561043a57848901518255600182019150602085019450602081019050610415565b868310156104575784890151610453601f891682610360565b8355505b6001600288020188555050505b505050505050565b7f4e487b7100000000000000000000000000000000000000000000000000000000600052601160045260246000fd5b60006104a682610268565b91507fffffffffffffffffffffffffffffffffffffffffffffffffffffffffffffffff82036104d8576104d761046c565b5b600182019050919050565b610d7b806104f26000396000f3fe608060405234801561001057600080fd5b506004361061007d5760003560e01c80633477ee2e1161005b5780633477ee2e146100ec57806335b8e8201461011d578063462e91ec1461014e578063bb9aa28f1461016a5761007d565b80630121b93f1461008257806309eef43e1461009e5780632d35a8a2146100ce575b600080fd5b61009c600480360381019061009791906105c2565b610188565b005b6100b860048036038101906100b3919061064d565b61032c565b6040516100c59190610695565b60405180910390f35b6100d661034c565b6040516100e391906106bf565b60405180910390f35b610106600480360381019061010191906105c2565b610352565b60405161011492919061076a565b60405180910390f35b610137600480360381019061013291906105c2565b6103fe565b60405161014592919061076a565b60405180910390f35b610168600480360381019061016391906108cf565b610506565b005b61017261056e565b60405161017f91906106bf565b60405180910390f35b600160003373ffffffffffffffffffffffffffffffffffffffff1673ffffffffffffffffffffffffffffffffffffffff16815260200190815260200160002060009054906101000a900460ff1615610215576040517f08c379a000000000000000000000000000000000000000000000000000000000815260040161020c90610964565b60405180910390fd5b6002548110610259576040517f08c379a0000000000000000000000000000000000000000000000000000000008152600401610250906109d0565b60405180910390fd5b600080828152602001908152602001600020600101600081548092919061027f90610a1f565b919050555060018060003373ffffffffffffffffffffffffffffffffffffffff1673ffffffffffffffffffffffffffffffffffffffff16815260200190815260200160002060006101000a81548160ff0219169083151502179055503373ffffffffffffffffffffffffffffffffffffffff167f4d99b957a2bc29a30ebd96a7be8e68fe50a3c701db28a91436490b7d53870ca48260405161032191906106bf565b60405180910390a250565b60016020528060005260406000206000915054906101000a900460ff1681565b60025481565b600060205280600052604060002060009150905080600001805461037590610a96565b80601f01602080910402602001604051908101604052809291908181526020018280546103a190610a96565b80156103ee5780601f106103c3576101008083540402835291602001916103ee565b820191906000526020600020905b8154815290600101906020018083116103d157829003601f168201915b5050505050908060010154905082565b606060006002548310610446576040517f08c379a000000000000000000000000000000000000000000000000000000000815260040161043d906109d0565b60405180910390fd5b6000808481526020019081526020016000206000016000808581526020019081526020016000206001015481805461047d90610a96565b80601f01602080910402602001604051908101604052809291908181526020018280546104a990610a96565b80156104f65780601f106104cb576101008083540402835291602001916104f6565b820191906000526020600020905b8154815290600101906020018083116104d957829003601f168201915b5050505050915091509150915091565b60405180604001604052808281526020016000815250600080600254815260200190815260200160002060008201518160000190816105459190610c73565b50602082015181600101559050506002600081548092919061056690610a1f565b919050555050565b6000600254905090565b6000604051905090565b600080fd5b600080fd5b6000819050919050565b61059f8161058c565b81146105aa57600080fd5b50565b6000813590506105bc81610596565b92915050565b6000602082840312156105d8576105d7610582565b5b60006105e6848285016105ad565b91505092915050565b600073ffffffffffffffffffffffffffffffffffffffff82169050919050565b600061061a826105ef565b9050919050565b61062a8161060f565b811461063557600080fd5b50565b60008135905061064781610621565b92915050565b60006020828403121561066357610662610582565b5b600061067184828501610638565b91505092915050565b60008115159050919050565b61068f8161067a565b82525050565b60006020820190506106aa6000830184610686565b92915050565b6106b98161058c565b82525050565b60006020820190506106d460008301846106b0565b92915050565b600081519050919050565b600082825260208201905092915050565b60005b838110156107145780820151818401526020810190506106f9565b60008484015250505050565b6000601f19601f8301169050919050565b600061073c826106da565b61074681856106e5565b93506107568185602086016106f6565b61075f81610720565b840191505092915050565b600060408201905081810360008301526107848185610731565b905061079360208301846106b0565b9392505050565b600080fd5b600080fd5b7f4e487b7100000000000000000000000000000000000000000000000000000000600052604160045260246000fd5b6107dc82610720565b810181811067ffffffffffffffff821117156107fb576107fa6107a4565b5b80604052505050565b600061080e610578565b905061081a82826107d3565b919050565b600067ffffffffffffffff82111561083a576108396107a4565b5b61084382610720565b9050602081019050919050565b82818337600083830152505050565b600061087261086d8461081f565b610804565b90508281526020810184848401111561088e5761088d61079f565b5b610899848285610850565b509392505050565b600082601f8301126108b6576108b561079a565b5b81356108c684826020860161085f565b91505092915050565b6000602082840312156108e5576108e4610582565b5b600082013567ffffffffffffffff81111561090357610902610587565b5b61090f848285016108a1565b91505092915050565b7f596f75206861766520616c726561647920766f74656421000000000000000000600082015250565b600061094e6017836106e5565b915061095982610918565b602082019050919050565b6000602082019050818103600083015261097d81610941565b9050919050565b7f496e76616c69642063616e646964617465204944000000000000000000000000600082015250565b60006109ba6014836106e5565b91506109c582610984565b602082019050919050565b600060208201905081810360008301526109e9816109ad565b9050919050565b7f4e487b7100000000000000000000000000000000000000000000000000000000600052601160045260246000fd5b6000610a2a8261058c565b91507fffffffffffffffffffffffffffffffffffffffffffffffffffffffffffffffff8203610a5c57610a5b6109f0565b5b600182019050919050565b7f4e487b7100000000000000000000000000000000000000000000000000000000600052602260045260246000fd5b60006002820490506001821680610aae57607f821691505b602082108103610ac157610ac0610a67565b5b50919050565b60008190508160005260206000209050919050565b60006020601f8301049050919050565b600082821b905092915050565b600060088302610b297fffffffffffffffffffffffffffffffffffffffffffffffffffffffffffffffff82610aec565b610b338683610aec565b95508019841693508086168417925050509392505050565b6000819050919050565b6000610b70610b6b610b668461058c565b610b4b565b61058c565b9050919050565b6000819050919050565b610b8a83610b55565b610b9e610b9682610b77565b848454610af9565b825550505050565b600090565b610bb3610ba6565b610bbe818484610b81565b505050565b5b81811015610be257610bd7600082610bab565b600181019050610bc4565b5050565b601f821115610c2757610bf881610ac7565b610c0184610adc565b81016020851015610c10578190505b610c24610c1c85610adc565b830182610bc3565b50505b505050565b600082821c905092915050565b6000610c4a60001984600802610c2c565b1980831691505092915050565b6000610c638383610c39565b9150826002028217905092915050565b610c7c826106da565b67ffffffffffffffff811115610c9557610c946107a4565b5b610c9f8254610a96565b610caa828285610be6565b600060209050601f831160018114610cdd5760008415610ccb578287015190505b610cd58582610c57565b865550610d3d565b601f198416610ceb86610ac7565b60005b82811015610d1357848901518255600182019150602085019450602081019050610cee565b86831015610d305784890151610d2c601f891682610c39565b8355505b6001600288020188555050505b50505050505056fea2646970667358221220d0a5e72d2ec15c18632ec7dbd6358087bb8e4839684ae5a9c08d176a3f63bef964736f6c634300081c0033",
  "linkReferences": {},
  "deployedLinkReferences": {}
}