{
  "_format": "hh-sol-artifact-1",
  "contractName": "Voting",
  "sourceName": "contracts/Voting.sol",
  "abi": [
    {
      "inputs": [
        {
          "internalType": "string[]",
          "name": "proposalNames",
          "type": "string[]"
        }
      ],
      "stateMutability": "nonpayable",
      "type": "constructor"
    },
    {
      "anonymous": false,
      "inputs": [
        {
          "indexed": true,
          "internalType": "address",
          "name": "voter",
          "type": "address"
        },
        {
          "indexed": false,
          "internalType": "uint256",
          "name": "proposalIndex",
          "type": "uint256"
        }
      ],
      "name": "Voted",
      "type": "event"
    },
    {
      "inputs": [],
      "name": "getProposals",
      "outputs": [
        {
          "components": [
            {
              "internalType": "string",
              "name": "name",
              "type": "string"
            },
            {
              "internalType": "uint256",
              "name": "voteCount",
              "type": "uint256"
            }
          ],
          "internalType": "struct Voting.Proposal[]",
          "name": "",
          "type": "tuple[]"
        }
      ],
      "stateMutability": "view",
      "type": "function"
    },
    {
      "inputs": [
        {
          "internalType": "uint256",
          "name": "",
          "type": "uint256"
        }
      ],
      "name": "proposals",
      "outputs": [
        {
          "internalType": "string",
          "name": "name",
          "type": "string"
        },
        {
          "internalType": "uint256",
          "name": "voteCount",
          "type": "uint256"
        }
      ],
      "stateMutability": "view",
      "type": "function"
    },
    {
      "inputs": [
        {
          "internalType": "uint256",
          "name": "proposalIndex",
          "type": "uint256"
        }
      ],
      "name": "vote",
      "outputs": [],
      "stateMutability": "nonpayable",
      "type": "function"
    }
  ],
  "bytecode": "0x608060405234801561001057600080fd5b50604051610e53380380610e538339818101604052810190610032919061032a565b60005b81518110156100c8576000604051806040016040528084848151811061005e5761005d610373565b5b602002602001015181526020016000815250908060018154018082558091505060019003906000526020600020906002020160009091909190915060008201518160000190816100ae91906105c3565b506020820151816001015550508080600101915050610035565b5050610695565b6000604051905090565b600080fd5b600080fd5b600080fd5b6000601f19601f8301169050919050565b7f4e487b7100000000000000000000000000000000000000000000000000000000600052604160045260246000fd5b610131826100e8565b810181811067ffffffffffffffff821117156101505761014f6100f9565b5b80604052505050565b60006101636100cf565b905061016f8282610128565b919050565b600067ffffffffffffffff82111561018f5761018e6100f9565b5b602082029050602081019050919050565b600080fd5b600080fd5b600067ffffffffffffffff8211156101c5576101c46100f9565b5b6101ce826100e8565b9050602081019050919050565b60005b838110156101f95780820151818401526020810190506101de565b60008484015250505050565b6000610218610213846101aa565b610159565b905082815260208101848484011115610234576102336101a5565b5b61023f8482856101db565b509392505050565b600082601f83011261025c5761025b6100e3565b5b815161026c848260208601610205565b91505092915050565b600061028861028384610174565b610159565b905080838252602082019050602084028301858111156102ab576102aa6101a0565b5b835b818110156102f257805167ffffffffffffffff8111156102d0576102cf6100e3565b5b8086016102dd8982610247565b855260208501945050506020810190506102ad565b5050509392505050565b600082601f830112610311576103106100e3565b5b8151610321848260208601610275565b91505092915050565b6000602082840312156103405761033f6100d9565b5b600082015167ffffffffffffffff81111561035e5761035d6100de565b5b61036a848285016102fc565b91505092915050565b7f4e487b7100000000000000000000000000000000000000000000000000000000600052603260045260246000fd5b600081519050919050565b7f4e487b7100000000000000000000000000000000000000000000000000000000600052602260045260246000fd5b600060028204905060018216806103f457607f821691505b602082108103610407576104066103ad565b5b50919050565b60008190508160005260206000209050919050565b60006020601f8301049050919050565b600082821b905092915050565b60006008830261046f7fffffffffffffffffffffffffffffffffffffffffffffffffffffffffffffffff82610432565b6104798683610432565b95508019841693508086168417925050509392505050565b6000819050919050565b6000819050919050565b60006104c06104bb6104b684610491565b61049b565b610491565b9050919050565b6000819050919050565b6104da836104a5565b6104ee6104e6826104c7565b84845461043f565b825550505050565b600090565b6105036104f6565b61050e8184846104d1565b505050565b5b81811015610532576105276000826104fb565b600181019050610514565b5050565b601f821115610577576105488161040d565b61055184610422565b81016020851015610560578190505b61057461056c85610422565b830182610513565b50505b505050565b600082821c905092915050565b600061059a6000198460080261057c565b1980831691505092915050565b60006105b38383610589565b9150826002028217905092915050565b6105cc826103a2565b67ffffffffffffffff8111156105e5576105e46100f9565b5b6105ef82546103dc565b6105fa828285610536565b600060209050601f83116001811461062d576000841561061b578287015190505b61062585826105a7565b86555061068d565b601f19841661063b8661040d565b60005b828110156106635784890151825560018201915060208501945060208101905061063e565b86831015610680578489015161067c601f891682610589565b8355505b6001600288020188555050505b505050505050565b6107af806106a46000396000f3fe608060405234801561001057600080fd5b50600436106100415760003560e01c80630121b93f14610046578063013cf08b1461006257806362564c4814610093575b600080fd5b610060600480360381019061005b9190610376565b6100b1565b005b61007c60048036038101906100779190610376565b610184565b60405161008a929190610442565b60405180910390f35b61009b610240565b6040516100a891906105ca565b60405180910390f35b60008054905081106100f8576040517f08c379a00000000000000000000000000000000000000000000000000000000081526004016100ef90610638565b60405180910390fd5b6000818154811061010c5761010b610658565b5b9060005260206000209060020201600101600081548092919061012e906106b6565b91905055503373ffffffffffffffffffffffffffffffffffffffff167f4d99b957a2bc29a30ebd96a7be8e68fe50a3c701db28a91436490b7d53870ca48260405161017991906106fe565b60405180910390a250565b6000818154811061019457600080fd5b90600052602060002090600202016000915090508060000180546101b790610748565b80601f01602080910402602001604051908101604052809291908181526020018280546101e390610748565b80156102305780601f1061020557610100808354040283529160200191610230565b820191906000526020600020905b81548152906001019060200180831161021357829003601f168201915b5050505050908060010154905082565b60606000805480602002602001604051908101604052809291908181526020016000905b82821015610332578382906000526020600020906002020160405180604001604052908160008201805461029790610748565b80601f01602080910402602001604051908101604052809291908181526020018280546102c390610748565b80156103105780601f106102e557610100808354040283529160200191610310565b820191906000526020600020905b8154815290600101906020018083116102f357829003601f168201915b5050505050815260200160018201548152505081526020019060010190610264565b50505050905090565b600080fd5b6000819050919050565b61035381610340565b811461035e57600080fd5b50565b6000813590506103708161034a565b92915050565b60006020828403121561038c5761038b61033b565b5b600061039a84828501610361565b91505092915050565b600081519050919050565b600082825260208201905092915050565b60005b838110156103dd5780820151818401526020810190506103c2565b60008484015250505050565b6000601f19601f8301169050919050565b6000610405826103a3565b61040f81856103ae565b935061041f8185602086016103bf565b610428816103e9565b840191505092915050565b61043c81610340565b82525050565b6000604082019050818103600083015261045c81856103fa565b905061046b6020830184610433565b9392505050565b600081519050919050565b600082825260208201905092915050565b6000819050602082019050919050565b600082825260208201905092915050565b60006104ba826103a3565b6104c4818561049e565b93506104d48185602086016103bf565b6104dd816103e9565b840191505092915050565b6104f181610340565b82525050565b6000604083016000830151848203600086015261051482826104af565b915050602083015161052960208601826104e8565b508091505092915050565b600061054083836104f7565b905092915050565b6000602082019050919050565b600061056082610472565b61056a818561047d565b93508360208202850161057c8561048e565b8060005b858110156105b857848403895281516105998582610534565b94506105a483610548565b925060208a01995050600181019050610580565b50829750879550505050505092915050565b600060208201905081810360008301526105e48184610555565b905092915050565b7f496e76616c69642070726f706f73616c00000000000000000000000000000000600082015250565b60006106226010836103ae565b915061062d826105ec565b602082019050919050565b6000602082019050818103600083015261065181610615565b9050919050565b7f4e487b7100000000000000000000000000000000000000000000000000000000600052603260045260246000fd5b7f4e487b7100000000000000000000000000000000000000000000000000000000600052601160045260246000fd5b60006106c182610340565b91507fffffffffffffffffffffffffffffffffffffffffffffffffffffffffffffffff82036106f3576106f2610687565b5b600182019050919050565b60006020820190506107136000830184610433565b92915050565b7f4e487b7100000000000000000000000000000000000000000000000000000000600052602260045260246000fd5b6000600282049050600182168061076057607f821691505b60208210810361077357610772610719565b5b5091905056fea26469706673582212206127509cbec95f8c8a8ffe862163994144b84cafa83d7082d041ac4edd372a1264736f6c634300081c0033",
  "linkReferences": {},
  "deployedLinkReferences": {}
}